:020000040800F2
:10000000281D00205D010008C98F0008CD8F000861
:10001000D18F0008D58F0008D98F0008000000009C
:10002000000000000000000000000000DD8F00085C
:10003000E18F00080000000073010008E58F000850
:1000400077010008770100087701000877010008B0
:1000500077010008770100087701000877010008A0
:100060007701000877010008770100087701000890
:100070007701000877010008770100087701000880
:100080007701000877010008770100087701000870
:100090007701000877010008770100087701000860
:1000A0007701000877010008770100087701000850
:1000B00077010008770100087701000889BB000874
:1000C0005DC00008350D01081D27010877010008F3
:1000D0007701000877010008770100087701000820
:1000E0007701000877010008770100087701000810
:1000F000770100087701000877010008E9A70008E8
:1001000077010008770100087701000871AB00084B
:1001100077010008770100087701000877010008DF
:10012000770100087701000877010008000000004F
:1001300077010008770100087701000877010008BF
:100140007701000877010008DFF80CD012F00EFEEE
:10015000004800474D8C0008281D002006488047B5
:1001600006480047FEE7FEE7FEE7FEE7FEE7FEE79C
:10017000FEE7FEE7FEE7FEE781010008490100080F
:1001800080B54EF68851CEF20001086840F4700048
:10019000086041F22401C4F20201086840F0040042
:1001A000086041F20401C4F2020108684CF2000246
:1001B000CFF6FF021040086041F20002C4F20202D2
:1001C00010684FF6FF73CFF6F663184010601068A2
:1001D00020F48020106008684FF6FF72C0F20072B1
:1001E0001040086041F22C01C4F2020100200860B6
:1001F00041F23002C4F202024FF46051116041F248
:100200003401C4F20201086041F24001C4F202016B
:10021000086041F20801C4F2020148F20000C0F295
:10022000BF40086041F21C01C4F20201086840F0BE
:1002300080500860086820F08050086042F200009A
:10024000C4F20200016841F0900101600068C0053D
:10025000002809D5FFE742F20001C4F20201086854
:1002600020F400700860FFE700F008F84EF608512F
:10027000CEF200014FF00060086080BD86B0002023
:100280000590049003908DF80B0041F20001C4F238
:100290000201086840F480300860FFE741F2000086
:1002A000C4F202000068C0F340408DF80B000398D0
:1002B00001300390FFE79DF80B100020C907019063
:1002C00039B9FFE70398B0F5005018BF012001903D
:1002D000FFE70198C0070028E0D1FFE741F20000E6
:1002E000C4F202000068C0F340408DF80B009DF896
:1002F0000B00C00750B9FFE740F21C01C2F2000139
:1003000040F60010C0F23D00086086E041F21C019A
:10031000C4F20201086840F08050086047F2000013
:10032000C4F20000006800F4C060B0F5806F09D12D
:10033000FFE747F20001C4F20001086840F4C06022
:100340000860FFE742F20001C4F20201086820F0F1
:1003500003000860086840F00300086041F20402EE
:10036000C4F20202009210681060106840F400505D
:100370001060106840F4A060106010684FF6FF71C4
:10038000CFF2C0710840106041F24001C4F2020196
:10039000086820F00300086010680590059840F494
:1003A0008030059008680490059840F4003005906E
:1003B00005980023C0F6280318430590059810609F
:1003C0000498086041F20001C4F20201086840F09C
:1003D00080700860FFE741F20000C4F2020000688C
:1003E0008001002801D4FFE7F5E741F20401C4F2DF
:1003F0000201086820F003000860086840F003006C
:100400000860FFE741F20400C4F20200006800F057
:100410000C000C2801D0FFE7F4E706B0704700BFDE
:1004200086B0002005900490039002908DF807009C
:1004300041F20400C4F20200006800F00C000590D4
:1004400041F22400C4F202000068C0F302108DF8EB
:100450000700059800900C2800F2A9800099DFE8B9
:1004600001F007A6A6A615A6A6A61FA6A6A6290061
:100470009DF8071043F66010C0F6010050F8210007
:1004800040F21C01C2F2000108609EE040F21C0133
:10049000C2F2000142F20040C0F2F400086094E0B1
:1004A00040F21C01C2F2000141F20020C0F27A00C9
:1004B00008608AE041F20400C4F2020001680022F0
:1004C000C0F63C0211400491006800F480300390B3
:1004D00041F24000C4F20200006800F00200029005
:1004E0009DF813000007002806D4FFE704990220B6
:1004F00000EB9140049006E004996FF4F77000EB74
:1005000091400490FFE7039810BBFFE741F24000E1
:10051000C4F202000068800700280CD5FFE70498A9
:1005200041F20021C0F27A01484340F21C01C2F2BC
:10053000000108600BE0049842F20041C0F2F401AF
:10054000484340F21C01C2F200010860FFE721E0CD
:1005500041F20400C4F202000068800300280CD5B8
:10056000FFE7049840F60011C0F23D01484340F215
:100570001C01C2F2000108600BE0049841F2002166
:10058000C0F27A01484340F21C01C2F20001086047
:10059000FFE7FFE70298022808D1FFE740F21C01BD
:1005A000C2F20001086840080860FFE70DE09DF80E
:1005B000071043F66010C0F6010050F8210040F229
:1005C0001C01C2F200010860FFE741F20400C4F21E
:1005D00002000068C0B2010943F64E10C0F60100E7
:1005E000405C0590059A40F21C01C2F200010868C7
:1005F000D040086006B0704781B00090009800219C
:10060000C0F2FA5108434EF60C51CEF200010860D8
:1006100001B0704784B003900020029001900F2039
:1006200000900398C078C0B3FFE74EF60C50CEF2AE
:1006300000000068C043C0F3022002900298C0F19D
:100640000400019000980299C840009003984078F7
:10065000019988400290039880780099014002989F
:1006600008430290029800010290029803990978C9
:100670004EF20042CEF2000288540398027802F053
:100680001F01012088404EF20011CEF2000141EA24
:10069000D20121F0030108600FE00398027802F014
:1006A0001F01012088404EF28011CEF2000141EA84
:1006B000D20121F003010860FFE704B0704700BFDA
:1006C00082B001900091019800994FF68072C1F6B6
:1006D000FF72114008434EF60851CEF20001086047
:1006E00002B0704781B08DF803008DF802109DF8BC
:1006F000020050B1FFE79DF803204EF61051CEF2F4
:10070000000108681043086009E09DF803204EF6D8
:100710001051CEF20001086890430860FFE701B075
:10072000704700BF81B000900098042809D1FFE70E
:100730004EF21001CEF20001086840F0040008609B
:1007400008E04EF21001CEF20001086820F004002B
:100750000860FFE701B0704780B582B00190019852
:1007600040F60001C4F2020188420BD1FFE74FF4CA
:1007700080500090012103F09FFF0098002103F0BA
:100780009BFFFFE702B080BD84B003900291002080
:1007900001908DF8030003984068019001984FF68E
:1007A000FF61CFF6F071084001900298017801983E
:1007B00040EA0120019001980399486003988068FD
:1007C000019001984FF2FD71CFF6F1710840019050
:1007D000029988684A681043497840EA41010198C3
:1007E000084301900198039988600398C06A0190BA
:1007F000019820F4700001900298007B411E9DF842
:10080000030008438DF803009DF80310019840EAA7
:100810000150019001980399C86204B0704700BF6D
:1008200081B00090009900200870009948700099EC
:1008300048600099886000990120087301B07047F2
:1008400082B001908DF803109DF8030030B1FFE7EE
:100850000199886840F00100886005E00199886886
:1008600020F001008860FFE702B0704782B001907D
:100870008DF803109DF8030030B1FFE701998868F7
:1008800040F48070886005E00199886820F48070E9
:100890008860FFE702B0704782B00190ADF80210A7
:1008A0008DF8012000208DF800009DF802008DF8E1
:1008B00000009DF8010038B1FFE79DF80020019984
:1008C00048681043486006E09DF800200199486898
:1008D00090434860FFE702B0704700BF81B00090CE
:1008E0000098406D30B9FFE70099886840F0040037
:1008F0008860FFE701B0704782B0019000208DF85A
:100900000300019880684007002804D5FFE7012014
:100910008DF8030003E000208DF80300FFE7019845
:10092000406D20B1FFE700208DF80300FFE79DF840
:10093000030002B0704700BF82B001908DF8031031
:100940009DF8030030B1FFE70199886840F4A000EA
:10095000886005E00199886820F4A0008860FFE7BE
:1009600002B0704782B0019000208DF8030001981A
:1009700080684002002804D5FFE701208DF80300BD
:1009800003E000208DF80300FFE79DF8030002B0AC
:10099000704700BF84B003908DF80B1000200190C9
:1009A0000090039840680190019820F46040019005
:1009B0009DF80B00013800900099019840EA413001
:1009C000019001980399486004B0704782B001908B
:1009D0008DF803109DF8030030B1FFE701994868D6
:1009E00040F40060486005E00199486820F4006028
:1009F0004860FFE702B0704784B003908DF80B1099
:100A00008DF80A208DF809300020019000909DF8A3
:100A10000B00122810D1FFE70398C06D01900198D8
:100A200020F0070001909DF80910019808430190FB
:100A300001980399C865FFE79DF80B000A2821DBA0
:100A4000FFE70398C06801909DF80B0000EB4000A1
:100A5000A0F11E010720884000900099019888436A
:100A600001909DF809009DF80B1001EB41011E3922
:100A700088400090009901980843019001980399DB
:100A8000C8601DE00398006901909DF80B0000EB21
:100A90004001072088400090009901988843019008
:100AA0009DF809009DF80B1001EB41018840009072
:100AB0000099019808430190019803990861FFE7A4
:100AC0009DF80A00062820DCFFE70398406B0190A0
:100AD0009DF80A0000EB8000411F1F208840009015
:100AE00000990198884301909DF80B009DF80A1029
:100AF00001EB810105398840009000990198084375
:100B0000019001980399486347E09DF80A000C287A
:100B100021DCFFE70398006B01909DF80A0000EBD1
:100B20008000A0F123011F208840009000990198C7
:100B3000884301909DF80B009DF80A1001EB81019C
:100B4000233988400090009901980843019001984A
:100B50000399086320E00398C06A01909DF80A0099
:100B600000EB8000A0F141011F2088400090009917
:100B70000198884301909DF80B009DF80A1001EB45
:100B80008101413988400090009901980843019003
:100B900001980399C862FFE7FFE704B0704700BF00
:100BA00082B001908DF803109DF8030030B1FFE78B
:100BB0000199886840F48010886005E00199886890
:100BC00020F480108860FFE702B0704781B0009089
:100BD0000098C06C80B201B0704700BF82B0019035
:100BE0008DF803109DF8030030B1FFE701994868C4
:100BF00040F48060486005E00199486820F4806016
:100C00004860FFE702B0704782B001908DF8031092
:100C10009DF8030030B1FFE70199486840F4805027
:100C2000486005E00199486820F480504860FFE77B
:100C300002B0704783B002900191002000900298AA
:100C400080680090009820F4E0400090019900989E
:100C50000843009000980299886003B0704700BF75
:100C600082B001908DF803109DF8030030B1FFE7CA
:100C70000199886840F40040886005E0019988681F
:100C800020F400408860FFE702B0704782B0019016
:100C90008DF803109DF8030030B1FFE701998868D3
:100CA00040F40210886005E00199886820F4021081
:100CB0008860FFE702B0704782B0019000208DF895
:100CC0000300019880688002002804D5FFE7012016
:100CD0008DF8030003E000208DF80300FFE79DF886
:100CE000030002B0704700BF85B004908DF80F106C
:100CF0008DF80E208DF80D300020029001900090AC
:100D00009DF80F00122810D1FFE70498C06D0290E3
:100D1000029820F0070002909DF80D1002980843F9
:100D2000029002980499C86544E09DF80F000A28D3
:100D300021DBFFE70498C06802909DF80F0000EBEC
:100D40004000A0F11E0107208840019001990298FF
:100D5000884302909DF80D009DF80F1001EB4101B2
:100D60001E39884001900199029808430290029828
:100D70000499C8601DE00498006902909DF80F0076
:100D800000EB4001072088400190019902988843B8
:100D900002909DF80D009DF80F1001EB4101884075
:100DA0000190019902980843029002980499086101
:100DB000FFE7FFE70498806B02900298C0F30150B0
:100DC00000909DF80E000099401A811CC8B2800066
:100DD00050FA81F11F2088400190019902988843C0
:100DE00002909DF80F009DF80E10009A891A8A1C37
:100DF000D1B2890051FA82F188400190019902989C
:100E00000843029002980499886305B0704700BFB8
:100E100084B003908DF80B1000200190009003988F
:100E2000806B0190019820F4401001909DF80B0018
:100E3000013800900099019840EA01500190019812
:100E40000399886304B0704783B002908DF807104F
:100E5000ADF8042000200090029800909DF8071043
:100E6000009808440090BDF804000099086003B0A1
:100E7000704700BF83B002908DF8071000200090EB
:100E8000029800909DF807000099084428300090CF
:100E90000098006880B203B0704700BF83B0029032
:100EA00001910020009002984068009000984FF651
:100EB000FF51CFF63F710840009001990098084318
:100EC000009000980299486003B0704782B001908A
:100ED000ADF80210ADF80020BDF80200019948629B
:100EE000BDF800000199886202B0704783B002909B
:100EF0008DF807100020009002984068009000983C
:100F000020F01F0000909DF8071000980843009003
:100F100000980299486003B0704700BF81B08DF817
:100F200003009DF80300E8B1FFE740F60801C4F2B2
:100F30000201086840F400000860FFE741F6240160
:100F4000C4F20001086840F400500860FFE7FFE7C2
:100F500041F62401C4F20001086840F480100860E2
:100F6000FFE71CE040F60801C4F20201086820F423
:100F700000000860FFE741F62401C4F200010868A0
:100F800020F400500860FFE7FFE741F62401C4F2B7
:100F90000001086820F480100860FFE7FFE701B057
:100FA000704700BF82B001908DF8031000208DF8CB
:100FB0000200019800689DF80310084204D0FFE782
:100FC00001208DF8020003E000208DF80200FFE709
:100FD0009DF8020002B0704782B001908DF80310B6
:100FE0009DF803107F2088430199086002B0704784
:100FF00084B00390ADF80A1000208DF8090001902C
:1010000000909DF80B000190039840689DF80A102D
:1010100008400090039800680199084207D0FFE754
:10102000009820B1FFE701208DF8090003E00020BF
:101030008DF80900FFE79DF8090004B0704700BF74
:1010400082B00190ADF8021000208DF801009DF8EB
:1010500003008DF801009DF801107F20884301995D
:10106000086002B0704700BF83B002900191002079
:1010700000900198C079C00730B1FFE70299C86DB0
:1010800040F00800C86505E00299C86D20F008002E
:10109000C865FFE70298806D00900198007828B13C
:1010A000FFE7009840F48060009004E0009820F48E
:1010B00080600090FFE70198407828B1FFE7009832
:1010C00040F40070009004E0009820F4007000905C
:1010D000FFE70198807828B1FFE7009840F480701E
:1010E000009004E0009820F480700090FFE70198E1
:1010F000007928B1FFE7009840F00800009004E074
:10110000009820F008000090FFE701984079C007A0
:1011100028B1FFE7009840F00400009004E0009838
:1011200020F004000090FFE7009820F003000090FA
:1011300001988179009808430090009820F01000F1
:1011400000900198C078012805D1FFE7009840F091
:1011500010000090FFE700980299886503B070477F
:1011600082B001908DF8031000208DF802000198E4
:10117000806D9DF80310084204D0FFE701208DF830
:10118000020003E000208DF80200FFE79DF8020056
:1011900002B0704783B002908DF8071000200090D5
:1011A0000298806D00909DF8070028B1FFE7009835
:1011B00040F08000009004E0009820F08000009053
:1011C000FFE700980299886503B0704783B00290EA
:1011D0000191002000900298806D0090009820F00E
:1011E000030000900199009808430090009802992C
:1011F000886503B0704700BF80B582B08DF80700E6
:1012000000919DF8070048B9FFE74FF48070002176
:1012100002F0EAFE009802F011FF07E000980121B9
:1012200002F0E2FE002002F009FFFFE702B080BDFD
:1012300084B0039000208DF80B00019000904FF2D5
:10124000C071C1F6FF7101918DF80B00FFE79DF8A9
:101250000B000F2829D8FFE70198011D01910068B4
:101260000090009803999DF80B20531C8DF80B30CB
:1012700088540098000A03999DF80B20531C8DF8A0
:101280000B308854BDF8020003999DF80B20531CC5
:101290008DF80B3088549DF8030003999DF80B20BE
:1012A000531C8DF80B308854D1E704B0704700BF51
:1012B00084B0039000208DF80B00019000904FF255
:1012C000F071C1F6FF7101918DF80B00FFE79DF8F9
:1012D0000B000B2829D8FFE70198011D0191006838
:1012E0000090009803999DF80B20531C8DF80B304B
:1012F00088540098000A03999DF80B20531C8DF820
:101300000B308854BDF8020003999DF80B20531C44
:101310008DF80B3088549DF8030003999DF80B203D
:10132000531C8DF80B308854D1E704B0704700BFD0
:1013300084B0039000208DF80B00019000904FF2D4
:10134000FC71C1F6FF7101918DF80B00FFE79DF86C
:101350000B00032829DCFFE70198011D01910068BB
:101360000090009803999DF80B20531C8DF80B30CA
:1013700088540098000A03999DF80B20531C8DF89F
:101380000B308854BDF8020003999DF80B20531CC4
:101390008DF80B3088549DF8030003999DF80B20BD
:1013A000531C8DF80B308854D1E704B0704700BF50
:1013B00042F20000CEF204000068C0B2704700BFE5
:1013C00081B042F20000CEF2040000680090009963
:1013D000C1F3035001F47F4140EA111001B070479E
:1013E00082B001908DF803109DF8030048B1FFE72B
:1013F000019A42F20401CEF2040108681043086029
:1014000008E0019A42F20401CEF204010868904318
:101410000860FFE702B0704742F20000CEF204001D
:10142000006800F47020704742F20000CEF2040021
:1014300001684FF4703000EA913000F58040704749
:1014400040F20041C4F201010020086040F2044172
:10145000C4F20101086040F20841C4F201010860D1
:1014600040F20C41C4F20101086040F21441C4F2A0
:1014700001016FF070400860704700BF82B00190BA
:101480000020009040F20040C4F20100009001985A
:101490008079002859D0FFE70198026840F20041A6
:1014A000C4F201010868904308600198026840F2A4
:1014B0000441C4F201010868904308600198017971
:1014C0000098084400900198026800990868104349
:1014D00008600198026840F20841C4F201010868FE
:1014E000904308600198026840F20C41C4F2010187
:1014F00008689043086001984079102813D1FFE7ED
:101500000198026840F20841C4F2010108681043E2
:1015100008600198026840F20C41C4F201010868B9
:101520001043086010E040F20040C4F20100009057
:101530000198417900980844009001980268009948
:10154000086810430860FFE70BE0019801790098F4
:101550000844009001980268009908689043086068
:10156000FFE702B0704700BF81B0009000990020F3
:10157000086000990871009A0C21517100998871D6
:1015800001B0704781B00090009A40F21041C4F25F
:10159000010108681043086001B0704782B00190F3
:1015A00000208DF8030040F21440C4F201000068EE
:1015B0000199084204D0FFE701208DF8030003E001
:1015C00000208DF80300FFE79DF8030002B070478C
:1015D00081B00090009840F21441C4F2010108600B
:1015E00001B0704783B0029000208DF80700009092
:1015F00040F20040C4F201000068029908400090E7
:1016000040F21440C4F2010000680299084207D079
:10161000FFE7009820B1FFE701208DF8070003E005
:1016200000208DF80700FFE79DF8070003B0704722
:1016300081B00090009840F21441C4F201010860AA
:1016400001B0704781B0009040F21841C4F201012E
:10165000086800200860009A08681043086001B01C
:101660007047000082B001900020009042F200011B
:10167000C4F2020108680090009800F0F8000090A1
:10168000019A0098104300900098086002B07047DB
:1016900081B0009042F20001C4F20201086820F01B
:1016A00010000860009A08681043086001B0704795
:1016B00042F20001C4F20201086840F040000860F4
:1016C000704700BF81B0009042F20001C4F20201F5
:1016D000086820F080000860009A086810430860DD
:1016E00001B0704781B0009042F20001C4F20201E3
:1016F000086820F400700860009A086810430860C9
:1017000001B0704781B000208DF8030042F2000064
:10171000C4F202000068C005002804D5FFE70120DC
:101720008DF8030003E000208DF80300FFE79DF82B
:10173000030001B0704700BF81B0009042F2000189
:10174000C4F20201086820F400600860009A08688A
:101750001043086001B0704781B000208DF803008D
:1017600042F20000C4F2020000684005002804D5DF
:10177000FFE701208DF8030003E000208DF803004F
:10178000FFE79DF8030001B0704700BF81B00090F3
:1017900042F21001C4F20201086843F6FF621040F1
:1017A0000860009A08681043086001B0704700BFE5
:1017B00084B000208DF80F0002908DF8070041F2F0
:1017C0000000C4F202000068800700283CD4FFE754
:1017D00041F20001C4F20201086840F00100086013
:1017E000FFE741F20000C4F202000068C0F34000CD
:1017F0008DF80F00029801300290FFE79DF80F105E
:101800000020C907009039B9FFE70298B0F5A06041
:1018100018BF01200090FFE70098C0070028E0D122
:10182000FFE741F20000C4F202000068C0F340008C
:101830008DF80F009DF80F00C00720B9FFE70120C9
:101840008DF80700FFE7FFE79DF8070004B0704739
:1018500042F20401C4F2020140F22310C4F26750C4
:10186000086048F6AB10CCF6EF500860704700BF38
:1018700042F21001C4F20201086840F080000860E2
:10188000704700BF80B584B0039006208DF80B0030
:101890007C2000F02FF84FF4302000F037F88DF85E
:1018A0000B009DF80B00062820D1FFE742F2100143
:1018B000C4F202010191086840F002000860039838
:1018C00042F21402C4F202021060086840F04000C4
:1018D00008604FF4302000F019F801998DF80B00E2
:1018E000086843F6FD7210400860FFE79DF80B00A2
:1018F00004B080BD81B00090009A42F20C01C4F2A5
:10190000020108681043086001B0704780B584B0D8
:10191000039006208DF80B0000F006FF8DF80B00F9
:10192000FFE79DF80B1000200129019006D1FFE789
:101930000398002818BF01200190FFE70198C00715
:1019400040B1FFE700F0F0FE8DF80B00039801387E
:101950000390E6E7039820B9FFE70A208DF80B0013
:10196000FFE79DF80B0004B080BD00BF80B582B0DA
:1019700006208DF807007C20FFF7BCFF4FF43020D5
:10198000FFF7C4FF8DF807009DF8070006281AD15D
:10199000FFE742F21001C4F202010091086840F032
:1019A00004000860086840F0400008604FF43020F0
:1019B000FFF7ACFF00998DF80700086843F6FB724B
:1019C00010400860FFE79DF8070002B080BD00BF2F
:1019D00080B584B0A520CFF6FF70029006208DF868
:1019E000070000F08BF840B1FFE708208DF80700F2
:1019F0009DF807008DF80F007CE000F097F820B10B
:101A0000FFE74FF47F000290FFE77C20FFF772FFB3
:101A10004FF43020FFF77AFF8DF807009DF807009C
:101A2000062862D1FFE742F20801C4F2020140F247
:101A30002310C4F26750086048F6AB10CCF6EF50A4
:101A4000086042F21001C4F20201086840F0200070
:101A50000860086840F0400008604FF43020FFF74D
:101A600055FF8DF807009DF8070006282CD1FFE7E9
:101A70007C20FFF73FFF42F21001C4F20201086828
:101A800043F6DF7210400860086840F010000860FC
:101A900002984FF60001C1F6FF7108604FF4005044
:101AA000FFF734FF8DF807009DF807000A280AD0D9
:101AB000FFE742F21001C4F20201086843F6EF7238
:101AC00010400860FFE70FE09DF807000A280AD0E1
:101AD000FFE742F21001C4F20201086843F6DF7228
:101AE00010400860FFE7FFE7FFE79DF807008DF86B
:101AF0000F00FFE79DF80F0004B080BD81B000200B
:101B00008DF8030042F21C00C4F202000068C00F0E
:101B100020B1FFE701208DF8030003E000208DF8DD
:101B20000300FFE79DF8030001B0704781B000207B
:101B30008DF8030042F21C00C4F202000068800726
:101B4000002804D5FFE701208DF8030003E0002002
:101B50008DF80300FFE79DF8030001B0704700BF58
:101B60002DE9F0478AB01E461746884681461A98E6
:101B70001999189A179BDDF858C0DDF854E0DDF884
:101B800050E0139C129D8DF826908DF825808DF8DD
:101B900024708DF823608DF822508DF821408DF847
:101BA00020E08DF81FC08DF81E308DF81D208DF8B7
:101BB0001C108DF81B0006208DF80300FFF79EFF18
:101BC00040B1FFE708208DF803009DF803008DF871
:101BD000270002E11598C04315909DF826009DF856
:101BE00025109DF8242011439DF8232011439DF8D2
:101BF0002220114340EA014005909DF8210040EA6F
:101C0000004004901599C8B201F47F4140EA0120D8
:101C10000390159AC2F307404FF47F0101EA1221A5
:101C2000084402909DF81F009DF81E109DF81D208D
:101C300011439DF81C2011439DF81B20114340EADD
:101C40000140019042F20801C4F2020140F2231067
:101C5000C4F26750086048F6AB10CCF6EF5008604D
:101C60007C20FFF747FE4FF43020FFF74FFE8DF842
:101C700003009DF80300062840F0AA80FFE742F227
:101C80001001C4F20201086840F0200008600868F2
:101C900040F0400008604FF43020FFF737FE8DF829
:101CA00003009DF80300062840F08180FFE77C20B8
:101CB000FFF720FE42F21001C4F20201086843F669
:101CC000DF7210400860086840F010000860059856
:101CD0004FF60001C1F6FF7108604FF40050FFF7A6
:101CE00015FE8DF803009DF8030006284FD1FFE78D
:101CF0007C20FFF7FFFD04984FF60401C1F6FF7149
:101D000008604FF40050FFF701FE8DF803009DF8C6
:101D1000030006283AD1FFE77C20FFF7EBFD03988C
:101D20004FF60801C1F6FF7108604FF40050FFF74D
:101D3000EDFD8DF803009DF80300062825D1FFE78F
:101D40007C20FFF7D7FD02984FF60C01C1F6FF711A
:101D500008604FF40050FFF7D9FD8DF803009DF89F
:101D60000300062810D1FFE77C20FFF7C3FD019890
:101D70004FF61001C1F6FF7108604FF40050FFF7F5
:101D8000C5FD8DF80300FFE7FFE7FFE7FFE79DF8DC
:101D900003000A280AD0FFE742F21001C4F2020150
:101DA000086843F6EF7210400860FFE70FE09DF807
:101DB00003000A280AD0FFE742F21001C4F2020130
:101DC000086843F6DF7210400860FFE7FFE7FFE7AF
:101DD0009DF803008DF82700FFE79DF827000AB063
:101DE000BDE8F08780B586B00490039106208DF899
:101DF0000B00002001909DF81000800740B1FFE724
:101E000009208DF80B009DF80B008DF817002BE0D2
:101E10007C20FFF76FFD4FF40050FFF777FD8DF842
:101E20000B009DF80B00062819D1FFE742F21001C4
:101E3000C4F202010091086840F0010008600398B4
:101E4000049908604FF40050FFF760FD00998DF889
:101E50000B00086843F6FE7210400860FFE79DF82B
:101E60000B008DF81700FFE79DF8170006B080BD46
:101E700080B584B00290019106208DF80300FFF731
:101E80003DFE40B1FFE708208DF803009DF80300F8
:101E90008DF80F0041E07C20FFF72CFD4FF400503F
:101EA000FFF734FD8DF803009DF8030006282FD1BD
:101EB000FFE742F20801C4F2020140F22310C4F22B
:101EC0006750086048F6AB10CCF6EF50086042F25D
:101ED0001001C4F20201086840F010000860019887
:101EE000029908604FF40050FFF710FD8DF80300D1
:101EF0009DF803000A280AD0FFE742F21001C4F25D
:101F00000201086843F6EF7210400860FFE7FFE740
:101F10009DF803008DF80F00FFE79DF80F0004B057
:101F200080BD00BF80B586B004904FF6FF70ADF85D
:101F30000E00ADF80C00ADF80A00ADF80800062060
:101F40008DF80700FFF7DAFD40B1FFE708208DF8B4
:101F500007009DF807008DF8170088E00498C0433B
:101F600004909DF81000ADF80E009DF81100ADF83A
:101F70000C009DF81200ADF80A009DF81300ADF8B2
:101F800008007C20FFF7B6FC4FF40050FFF7BEFCC2
:101F90008DF807009DF80700062863D1FFE742F29D
:101FA0000801C4F2020140F22310C4F26750086035
:101FB00048F6AB10CCF6EF50086042F21001C4F2C4
:101FC0000201086840F010000860BDF80E00FF280C
:101FD00005D1FFE7BDF80C00FF2812D0FFE7BDF8E0
:101FE0000E00BDF80C1040EA01404FF60801C1F6A2
:101FF000FF7108604FF40050FFF788FC8DF8070070
:10200000FFE7BDF80A00FF2805D1FFE7BDF808008B
:10201000FF2817D0FFE79DF80700062812D1FFE739
:10202000BDF80A00BDF8081040EA01404FF60C0167
:10203000C1F6FF7108604FF40050FFF767FC8DF8A0
:102040000700FFE79DF807000A280AD0FFE742F2E1
:102050001001C4F20201086843F6EF7210400860F4
:10206000FFE7FFE79DF807008DF81700FFE79DF8F1
:10207000170006B080BD00BF80B584B08DF80E009B
:1020800006208DF8070042F21C00C4F2020000682E
:1020900000F01C0080030290FFF730FD40B1FFE725
:1020A00008208DF807009DF807008DF80F0084E0E8
:1020B0007C20FFF71FFC4FF43020FFF727FC8DF842
:1020C00007009DF80700062872D1FFE742F20801D9
:1020D000C4F2020140F22310C4F26750086048F6CF
:1020E000AB10CCF6EF50086042F21001C4F20201CE
:1020F000086840F020000860086840F04000086070
:102100004FF43020FFF702FC8DF807009DF8070020
:1021100006283CD1FFE77C20FFF7ECFB42F21001E0
:10212000C4F20201086843F6DF72104008600868D4
:1021300040F0100008609DF80E0048B1FFE79DF8E0
:102140000A0000044FF60001C1F6FF71086008E0C4
:10215000029840F0A5004FF60001C1F6FF7108603B
:10216000FFE74FF43020FFF7D1FB8DF807009DF813
:1021700007000A280AD0FFE742F21001C4F2020168
:10218000086843F6EF7210400860FFE70FE09DF823
:1021900007000A280AD0FFE742F21001C4F2020148
:1021A000086843F6DF7210400860FFE7FFE7FFE7CB
:1021B0009DF807008DF80F00FFE79DF80F0004B0B1
:1021C00080BD00BF80B584B006208DF8070042F2C4
:1021D0001C00C4F20200006800F01C0080030290A2
:1021E000FFF7A4FC28B9FFE7029840F0A500029091
:1021F000FFE7FFF783FC40B1FFE708208DF80700F9
:102200009DF807008DF80F008CE07C20FFF772FB33
:102210004FF43020FFF77AFB8DF807009DF8070098
:1022200006287AD1FFE742F20801C4F2020140F227
:102230002310C4F26750086048F6AB10CCF6EF509C
:10224000086042F21001C4F20201086840F0200068
:102250000860086840F0400008604FF43020FFF745
:1022600055FB8DF807009DF80700062844D1FFE7CD
:102270007C20FFF73FFB42F21001C4F20201086824
:1022800043F6DF7210400860086840F010000860F4
:1022900002984FF60001C1F6FF7108604FF430203C
:1022A000FFF734FB8DF807009DF80700062813D1CF
:1022B000FFE77C20FFF71EFB4FF61001C1F6FF7110
:1022C00043F2CC30CFF6FF7008604FF43020FFF7B8
:1022D0001DFB8DF80700FFE79DF807000A280AD0CC
:1022E000FFE742F21001C4F20201086843F6EF7200
:1022F00010400860FFE70FE09DF807000A280AD0A9
:10230000FFE742F21001C4F20201086843F6DF72EF
:1023100010400860FFE7FFE7FFE79DF807008DF832
:102320000F00FFE79DF80F0004B080BD80B584B0BA
:102330008DF80E008DF80D108DF80C208DF80B30F7
:10234000A520CFF6F070019006208DF80300FFF76E
:10235000D5FB40B1FFE708208DF803009DF803008E
:102360008DF80F008AE0FFF7E1FB28B1FFE70020BE
:10237000CFF6F0700190FFE742F20801C4F20201CB
:1023800040F22310C4F26750086048F6AB10CCF658
:10239000EF5008607C20FFF7ADFA4FF43020FFF7D4
:1023A000B5FA8DF803009DF80300062861D1FFE718
:1023B00042F21001C4F20201086840F020000860F7
:1023C000086840F0400008604FF43020FFF79EFAA4
:1023D0008DF803009DF80300062839D1FFE77C2023
:1023E000FFF788FA42F21001C4F20201086843F6CE
:1023F000DF7210400860086840F010000860019823
:102400009DF80E109DF80D2011439DF80C201143EE
:102410009DF80B20114340EA01404FF60001C1F640
:10242000FF7108604FF40050FFF770FA8DF8030059
:102430009DF803000A280AD0FFE742F21001C4F217
:102440000201086843F6EF7210400860FFE70FE0F2
:102450009DF803000A280AD0FFE742F21001C4F2F7
:102460000201086843F6DF7210400860FFE7FFE7EB
:10247000FFE79DF803008DF80F00FFE79DF80F00C0
:1024800004B080BD80B586B08DF816008DF81510AB
:102490008DF814208DF81330A520CFF6FF7003902F
:1024A0006FF47F00029006208DF80700FFF726FBEF
:1024B00040B1FFE708208DF807009DF807008DF870
:1024C00017009FE0FFF732FB28B1FFE70020CFF6AF
:1024D000FF700390FFE742F20801C4F2020140F2EC
:1024E0002310C4F26750086048F6AB10CCF6EF50EA
:1024F00008607C20FFF7FEF94FF43020FFF706FA62
:102500008DF807009DF80700062876D1FFE742F214
:102510001001C4F20201086840F020000860086859
:1025200040F0400008604FF43020FFF7EFF98DF8DD
:1025300007009DF8070006284ED1FFE77C20FFF733
:10254000D9F942F21001C4F20201086843F6DF72C1
:1025500010400860086840F01000086003984FF6CB
:102560000001C1F6FF7108604FF40050FFF7CEF98B
:102570008DF807009DF8070006281DD1FFE77C2095
:10258000FFF7B8F902989DF816109DF81520114331
:102590009DF8142011439DF81320114340EA014097
:1025A0004FF61001C1F6FF7108604FF40050FFF7BD
:1025B000ADF98DF80700FFE79DF807000A280AD05B
:1025C000FFE742F21001C4F20201086843F6EF721D
:1025D00010400860FFE70FE09DF807000A280AD0C6
:1025E000FFE742F21001C4F20201086843F6DF720D
:1025F00010400860FFE7FFE7FFE79DF807008DF850
:102600001700FFE79DF8170006B080BD42F21C00DE
:10261000C4F2020000688008704700BF42F2200048
:10262000C4F202000068704781B000208DF80300FA
:1026300042F20000C4F2020000688006002804D5BF
:10264000FFE701208DF8030003E000208DF8030070
:10265000FFE79DF8030001B0704700BF81B0002084
:102660008DF8030042F21000C4F20200006843F645
:10267000FF61084204D0FFE701208DF8030003E06A
:1026800000208DF80300FFE79DF8030001B07047BC
:1026900082B001908DF803109DF8030048B1FFE768
:1026A000019A42F21001C4F2020108681043086066
:1026B00008E0019A42F21001C4F202010868904356
:1026C0000860FFE702B0704782B0019000208DF8EB
:1026D00003000198012811D1FFE742F21C00C4F267
:1026E00002000068C00720B1FFE701208DF8030059
:1026F00003E000208DF80300FFE711E042F20C0038
:10270000C4F2020000680199084204D0FFE70120EA
:102710008DF8030003E000208DF80300FFE7FFE7DA
:102720009DF8030002B0704781B006208DF80300C9
:1027300042F20C00C4F202000068C00720B1FFE7BB
:1027400001208DF803003BE042F20C00C4F20200CD
:1027500000684007002804D5FFE703208DF8030038
:102760002DE042F20C00C4F20200006800070028CD
:1027700004D5FFE704208DF803001FE042F20C00AF
:10278000C4F202000068C006002804D5FFE7052057
:102790008DF8030011E042F20C00C4F20200006860
:1027A0004006002804D5FFE707208DF8030003E06A
:1027B00006208DF80300FFE7FFE7FFE7FFE7FFE7ED
:1027C0009DF8030001B0704780B58CB00B900020DD
:1027D0000A90099008904FF6FF7007900B9840F60A
:1027E0000001C4F2010188420AD1FFE704200690EB
:1027F000012101F07DFF0698002101F079FF39E009
:102800000B9840F60041C4F2010188420AD1FFE76B
:1028100008200590012101F06BFF0598002101F0CF
:1028200067FF26E00B9841F20001C4F201018842E3
:102830000AD1FFE710200490012101F059FF04980C
:10284000002101F055FF13E00B9841F20041C4F262
:10285000010188420AD1FFE720200390012101F005
:1028600047FF0398002101F043FF00E0C6E0FFE7C7
:10287000FFE7FFE7FFE707980A99C840002800F044
:10288000BD80FFE707980A9A01219140084009900E
:102890000998002800F0AE80FFE70A9820F00300B6
:1028A0000421C4F20101405808900A9800F0030086
:1028B00081000F2000FA01F108980840089008985C
:1028C00002900B9840F60001C4F20101884203D146
:1028D000FFE70020019018E00B9840F60041C4F299
:1028E0000101884203D1FFE7012000900AE00B9923
:1028F00041F20002C4F201020320914208BF02200B
:102900000090FFE700980190FFE7029801990A9A6A
:1029100002F0030292009140884232D1FFE7099A07
:1029200040F20041C4F20101086890430860099A2E
:1029300040F20441C4F20101086890430860099A1A
:1029400040F20841C4F20101086890430860099A06
:1029500040F20C41C4F201010868904308600A98F3
:1029600000F0030081000F2088400890089B0A981F
:1029700020F003010422C4F20102885898438850D1
:10298000FFE70A984100032000FA01F20B9908685A
:10299000904308609DF82800000700280CD5FFE749
:1029A0000A9800F0070081000F2000FA01F20B994D
:1029B000486A104348620BE00A9800F00700810063
:1029C0000F2000FA01F20B99086A10430862FFE732
:1029D0000A99012000FA01F20B9948689043486077
:1029E0000A984100032000FA01F20B99C86890434D
:1029F000C860FFE70A9801300A903CE70CB080BD40
:102A000080B582B001210191084601F071FE019864
:102A1000002101F06DFE02B080BD00BF87B00690BE
:102A20000591002004900390029001900090FFE730
:102A3000059800880199C840002800F0A781FFE7A9
:102A400005980088019A0121914008400090009863
:102A5000002800F09781FFE7019840000490059856
:102A6000806802280ED0FFE705988068122809D0F8
:102A7000FFE70598806828B1FFE70598806803287C
:102A80003FD1FFE79DF80400000700281CD5FFE7B1
:102A90000698406A0390019800F0070081000F201B
:102AA00000FA01F10398884303900598C0680199E2
:102AB00001F00701890000FA01F10398084303902F
:102AC0000398069948621BE00698006A03900198F3
:102AD00000F0070081000F2000FA01F103988843FD
:102AE00003900598C068019901F00701890000FA78
:102AF00001F1039808430390039806990862FFE7E1
:102B0000FFE70698006802900598806800F00F00C3
:102B100003900499032000FA01F202999143029173
:102B20000399049A01FA02F202991143029102995F
:102B3000069A11600699C96802910599097901F010
:102B400003010391049900FA01F10298884302906D
:102B50000398049900FA01F1029808430290029840
:102B60000699C8600598007A8007F8B1FFE70598D4
:102B7000806803281AD0FFE70698C06A029005987B
:102B8000807800F0030003900499032000FA01F11B
:102B90000298884302900398049900FA01F1029880
:102BA0000843029002980699C862FFE70698806879
:102BB00003900199012000FA01F1039888430390E2
:102BC0000598C07800F00100019900FA01F103981E
:102BD00008430390039806998860059800790228B5
:102BE00009D1FFE70199012000FA01F20699886AEC
:102BF000104388620EE005980079012809D1FFE7AB
:102C00000199012000FA01F2069988691043886150
:102C1000FFE7FFE70598806801280FD0FFE70598D8
:102C2000806802280AD0FFE705988068112805D03F
:102C3000FFE705988068122818D1FFE706984068DA
:102C400003900199012000FA01F103988843039051
:102C500005988068C0F30010019900FA01F103980B
:102C600008430390039806994860FFE70598C07AE7
:102C7000C006002840F18580FFE740F20040C4F222
:102C80000100006803900199012000FA01F1039806
:102C9000884303900598807AC00740B1FFE7019907
:102CA000012000FA01F1039808430390FFE703981D
:102CB00040F20041C4F20101086040F20440C4F255
:102CC0000100006803900199012000FA01F10398C6
:102CD000884303900598807A8007002808D5FFE78D
:102CE0000199012000FA01F1039808430390FFE7DE
:102CF000039840F20441C4F20101086040F2084028
:102D0000C4F20100006803900199012000FA01F16A
:102D10000398884303900598807AC006002808D558
:102D2000FFE70199012000FA01F10398084303909D
:102D3000FFE7039840F20841C4F20101086040F245
:102D40000C40C4F20100006803900199012000FAD0
:102D500001F10398884303900598807A8006002843
:102D600008D5FFE70199012000FA01F10398084313
:102D70000390FFE7039840F20C41C4F201010860A0
:102D8000FFE7FFE701980130019051E607B0704777
:102D900081B0009000994FF6FF70088000990020E4
:102DA000C87000998860009A0F21D160009908715D
:102DB0000099887001B0704782B00190ADF80210A0
:102DC00000208DF8010001980069BDF8021008424A
:102DD00004D0FFE701208DF8010003E000208DF80A
:102DE0000100FFE79DF8010002B0704781B000903C
:102DF0000098006980B201B0704700BF82B00190B6
:102E0000ADF8021000208DF8010001984069BDF86E
:102E10000210084204D0FFE701208DF8010003E012
:102E200000208DF80100FFE79DF8010002B0704717
:102E300081B000900098406980B201B0704700BF37
:102E400082B00190ADF80210BDF8020001998861CE
:102E500002B0704782B0019000910098019988619A
:102E600002B0704782B00190ADF80210BDF80200C8
:102E70000199886202B0704782B00190ADF80210EB
:102E80008DF801209DF8010028B1FFE7BDF8020090
:102E90000199886104E0BDF8020001998862FFE7AA
:102EA00002B0704782B00190ADF80210BDF8020088
:102EB0000199486102B0704783B00290ADF80610E6
:102EC0004FF480300090BDF8061000980843009041
:102ED00000980299C861BDF806000299C86100987F
:102EE0000299C8610298C06900900298C069009078
:102EF00003B0704787B08DF81B008DF81A1005924B
:102F00000020049003909DF81B0030B9FFE740F6C5
:102F10000000C4F2010001901BE09DF81B00012895
:102F200006D1FFE740F60040C4F2010000900DE03A
:102F30009DF81B1041F20040C4F20100022904BFB9
:102F400041F20000C4F201000090FFE700980190F8
:102F5000FFE7019802909DF81A00000700281CD591
:102F6000FFE79DF81A0000F0070004900298406AFD
:102F70000390049881000F2000FA01F10398884320
:102F8000039005980499890000FA01F10398084319
:102F900003900398029948621BE09DF81A0000F024
:102FA000070004900298006A0390049881000F20A3
:102FB00000FA01F103988843039005980499890069
:102FC00000FA01F1039808430390039802990862FC
:102FD000FFE707B0704700BF86B08DF817008DF887
:102FE00016100020049003909DF8170030B9FFE7F9
:102FF00040F60000C4F2010001901BE09DF81700AC
:10300000012806D1FFE740F60040C4F2010000901D
:103010000DE09DF8171041F20040C4F201000229B2
:1030200004BF41F20000C4F201000090FFE70098E5
:103030000190FFE7019802909DF816000007002814
:1030400018D5FFE79DF8160000F0070003900298DE
:10305000406A0490039881000F2000FA01F104985F
:1030600088430490049840F0030004900498029967
:10307000486217E09DF8160000F0070003900298E0
:10308000006A0490039881000F2000FA01F104986F
:1030900088430490049840F0030004900498029937
:1030A0000862FFE706B0704781B08DF803009DF815
:1030B00003001C21C4F22021086001B0704700BF4A
:1030C00082B08DF807008DF806109DF8070000907B
:1030D0009DF8060000F003018A00032101FA02F3C3
:1030E00000F0FC010422C4F2010288589843885081
:1030F00000999DF8060000F003039B0001FA03F31A
:1031000000F0FC0188581843885002B0704700BF97
:1031100083B002908DF80710002000900021C4F2C7
:10312000010108680090029A012000FA02F200985A
:10313000904300909DF80700029A00FA02F200986E
:10314000104300900098086003B0704782B08DF87B
:1031500007008DF80610002000909DF80700092850
:1031600024D1FFE70020C4F201000068009000981D
:1031700020F4007000909DF80600112805D1FFE7AB
:10318000009840F4007000900AE0009820F0F000F1
:1031900000909DF80610009840EA01100090FFE7AB
:1031A00000980021C4F20101086028E09DF80700A2
:1031B000082823D1FFE70020C4F201000068009036
:1031C000009820F4807000909DF80600102805D12A
:1031D000FFE7009840F48070009009E0009820F02C
:1031E0000F0000909DF80610009808430090FFE73C
:1031F00000980021C4F201010860FFE7FFE702B078
:103200007047000080B584B00390039845F20041F8
:10321000C4F2000188420BD1FFE74FF40010029086
:10322000012101F081FA0298002101F07DFA0AE003
:103230004FF480000190012101F076FA01980021FD
:1032400001F072FAFFE704B080BD00BF80B58CB01A
:103250000B900A9100200090ADF82600ADF82400F4
:103260000420ADF8220041F20020C0F27A0007905D
:103270000B988088ADF82600BDF8260020F03F00AE
:10328000ADF8260001A801F0C3F800980399079152
:1032900007994DF68362C4F21B32A1FB0221890C0F
:1032A000ADF82410BDF82420BDF826101143ADF868
:1032B0002610BDF826100B9A91800B9A118821F0E8
:1032C00001011180ADF826000A98006848F2A0615B
:1032D000C0F2010188421ED8FFE707980A990968E1
:1032E0004900B0FBF1F0ADF82200BDF82200032840
:1032F00004DCFFE70420ADF82200FFE7BDF8221050
:10330000BDF826000843ADF82600BDF824000130C2
:103310000B99088446E00A98C0884BF6FF718842F2
:103320000AD1FFE707980A99096801EB4101B0FB50
:10333000F1F0ADF822000FE007980A990968192208
:103340005143B0FBF1F0ADF82200BDF8220040F48B
:103350008040ADF82200FFE7BDF82200000538B933
:10336000FFE7BDF8220040F00100ADF82200FFE7C2
:10337000BDF82200BDF82610084340F40040ADF827
:103380002600BDF824004FF49671484344F6D3510B
:10339000C1F26201A0FB0101012000EB91100B9929
:1033A0000884FFE7BDF826000B9988830B990888ED
:1033B00040F0010008800B980088ADF82600BDF8A9
:1033C00026004FF6F5310840ADF826000A998888A6
:1033D00049890143BDF826000843ADF82600BDF831
:1033E00026000B9908800A998889098908430B9956
:1033F00008810CB080BD00BF81B00090009941F2FF
:1034000088300860009900208880009A4BF6FF7190
:10341000D180009908810099488100994FF480403B
:10342000888101B0704700BF82B001908DF8031011
:103430009DF8030030B1FFE70199088840F00100D2
:10344000088005E00199088820F001000880FFE766
:1034500002B0704782B001908DF803109DF8030010
:1034600030B1FFE70199888840F40060888005E06A
:103470000199888820F400608880FFE702B07047D7
:1034800082B001908DF803109DF8030030B1FFE782
:103490000199888840F48050888005E001998888E7
:1034A00020F480508880FFE702B0704782B001901E
:1034B0008DF803109DF8030030B1FFE701990888EB
:1034C00040F48070088005E00199088820F480703D
:1034D0000880FFE702B0704782B001908DF80310BA
:1034E0009DF8030030B1FFE70199088840F40070AF
:1034F000088005E00199088820F400700880FFE743
:1035000002B0704782B001908DF803109DF803005F
:1035100030B1FFE70199088840F48060088005E039
:103520000199088820F480600880FFE702B07047A6
:1035300082B001908DF803100020ADF800000198D2
:103540008089ADF80000BDF8000020F0FE00ADF865
:1035500000009DF8030000F0FE01BDF800000843E4
:10356000ADF80000BDF800000199888102B07047F5
:1035700082B001908DF803109DF8030030B1FFE791
:103580000199888940F00100888105E001998889C6
:1035900020F001008881FFE702B0704782B00190FF
:1035A0008DF803109DF8030030B1FFE701990888FA
:1035B00040F04000088005E00199088820F04000B4
:1035C0000880FFE702B0704782B00190ADF80210AA
:1035D0008DF801209DF8010038B1FFE7BDF8022009
:1035E000019988881043888006E0BDF8022001997F
:1035F000888890438880FFE702B0704782B00190CE
:103600008DF803109DF803000199088202B07047FD
:1036100081B000900098008AC0B201B0704700BF2E
:1036200082B001908DF803108DF802209DF8020001
:1036300038B1FFE79DF8030040F001008DF803006A
:1036400006E09DF8030000F0FE008DF80300FFE7A0
:103650009DF803000199088202B0704783B0029080
:103660008DF8071000200090029800909DF8071038
:103670000098084400900098008803B0704700BF8D
:1036800082B001908DF803109DF8030030B1FFE780
:103690000199088840F40040088005E001990888F5
:1036A0006FF3DF300880FFE702B0704782B001900F
:1036B000ADF80210BDF80200B0F5006F06D1FFE7CB
:1036C0000199088840F40060088005E001990888A5
:1036D00020F400600880FFE702B0704782B00190DC
:1036E000ADF80210BDF80200B0F5005F06D1FFE7AB
:1036F0000199088840F40050088005E00199088885
:1037000020F400500880FFE702B0704782B00190BB
:103710008DF803109DF8030030B1FFE70199088888
:1037200040F48050088005E00199088820F480501A
:103730000880FFE702B0704782B00190ADF8021038
:10374000BDF80200B0F5006F06D1FFE701990888C7
:1037500040F40060088005E00199088820F40060CA
:103760000880FFE702B0704782B001908DF8031027
:103770009DF8030030B1FFE70199088840F0200070
:10378000088005E00199088820F020000880FFE704
:1037900002B0704781B000900098008B000A01B021
:1037A000704700BF82B001908DF803109DF80300B0
:1037B00030B1FFE70199088840F01000088005E06B
:1037C0000199088820F010000880FFE702B07047D8
:1037D00082B001908DF803109DF8030030B9FFE727
:1037E0000199088840F08000088005E00199088868
:1037F00020F080000880FFE702B0704782B001909F
:10380000ADF80210BDF80200B0F5804F06D0FFE71A
:103810000199888B20F48040888305E00199888B8A
:1038200040F480408883FFE702B0704786B005907F
:10383000049100200390029001908DF803000598F8
:10384000808A02900598008B0190019800040190F5
:1038500002980199084320F07F400390039804994F
:103860000840884204D1FFE701208DF8030003E0FF
:1038700000208DF80300FFE79DF8030006B07047B5
:1038800084B0039000200290019000900398808AF9
:1038900001900398008B009000980004009001981C
:1038A0000099084320F07F400290029804B07047CE
:1038B00085B00490039100208DF80B0001900090DA
:1038C000049800900398000F0190039820F07F4027
:1038D0000390019820B1FFE700981430009006E0B3
:1038E000BDF80E000390009818300090FFE7009894
:1038F00000680399084204D0FFE701208DF80B000F
:1039000003E000208DF80B00FFE79DF80B0005B0E9
:10391000704700BF83B00290019100200090019891
:1039200020F07F4000900098C0430299888203B045
:10393000704700BF84B00390029100208DF807000B
:103940000090029800F0E0610398808800EA11403E
:103950000090029820F07F4002900398808A02999C
:10396000084207D0FFE7009820B1FFE701208DF85B
:10397000070003E000208DF80700FFE79DF807002F
:1039800004B0704783B0029001910020009001982C
:1039900020F07F4000900098C0430299888203B0D5
:1039A0007047000041F22401C4F20201086840F0AF
:1039B0000400086041F20401C4F2020108684CF2FC
:1039C0000302CFF2E2021040086041F20002C4F2AA
:1039D000020210684FF6FE73CFF6F66318401060CF
:1039E000106820F48020106008684FF6FF72CFF254
:1039F00000721040086041F22C01C4F202014FF441
:103A00006050086041F23001C4F20201086041F2E6
:103A10003401C4F202010020086041F24001C4F206
:103A20000201086041F20801C4F202014FF41F00D4
:103A30000860704782B0019041F20001C4F20201B7
:103A4000086820F480300860086820F4802008604E
:103A500001980090B0F5803F05D0FFE70098B0F5E1
:103A6000802F09D011E041F20001C4F20201086880
:103A700040F48030086009E041F20001C4F2020124
:103A8000086840F4A020086000E0FFE702B070473B
:103A900080B584B0002003908DF80B008DF80A00EB
:103AA000FFE7312000F02AF88DF80A000398013072
:103AB0000390FFE703990020B1F5005F019007D064
:103AC000FFE79DF80A00B0FA80F040090190FFE797
:103AD0000198C0070028E4D1FFE7312000F00EF87C
:103AE00020B1FFE701208DF80B0003E000208DF8E6
:103AF0000B00FFE79DF80B0004B080BD84B08DF88B
:103B00000F000020029001908DF803009DF80F0037
:103B1000400902900298012807D1FFE741F2000016
:103B2000C4F202000068019012E00298022807D156
:103B3000FFE741F22000C4F202000068019006E0B5
:103B400041F22400C4F2020000680190FFE7FFE7A1
:103B50009DF80F0000F01F00029001980299C840E4
:103B6000C00720B1FFE701208DF8030003E000202B
:103B70008DF80300FFE79DF8030004B0704700BF15
:103B800081B0009041F20001C4F20201086820F007
:103B9000010008600098012809D1FFE741F2000107
:103BA000C4F20201086840F00100086000E0FFE78D
:103BB00001B0704780B584B0002003908DF80B00F1
:103BC0008DF80A00FFE72120FFF798FF8DF80A0023
:103BD000039801300390FFE703990020B1F5A06F2F
:103BE000019007D0FFE79DF80A00B0FA80F0400985
:103BF0000190FFE70198C0070028E4D1FFE72120EA
:103C0000FFF77CFF20B1FFE701208DF80B0003E0F8
:103C100000208DF80B00FFE79DF80B0004B080BD7D
:103C200082B08DF807000020009041F20001C4F23C
:103C3000020108680090009820F07C0000909DF838
:103C40000720009840EA820000900098086002B0C7
:103C5000704700BF81B08DF803009DF8030000217C
:103C6000C4F24221086001B0704700BF83B00290E7
:103C7000019141F22401C4F20201086820F07000B1
:103C80000860019A0868104308600298009068B1C3
:103C9000FFE70098042812D1FFE741F22401C4F2A3
:103CA0000201086840F00400086009E041F22401C4
:103CB000C4F20201086820F00400086000E0FFE799
:103CC00003B0704780B584B0002003908DF80B00DE
:103CD0008DF80A00FFE76320FFF710FF8DF80A0058
:103CE000039801300390FFE703990020B1F5A06F1E
:103CF000019007D0FFE79DF80A00B0FA80F0400974
:103D00000190FFE70198C0070028E4D1FFE7632096
:103D1000FFF7F4FE20B1FFE701208DF80B0003E070
:103D200000208DF80B00FFE79DF80B0004B080BD6C
:103D300082B08DF807000020009041F22401C4F207
:103D4000020108680090009820F4FF0000909DF8A0
:103D50000720009840EAC23000900098086002B046
:103D6000704700BF81B08DF803009DF8030040F25A
:103D70008841C4F24221086001B0704785B00490C8
:103D80000391029200200190009041F20400C4F2DD
:103D900002000068019041F24000C4F20200006895
:103DA000009001984FF6FF71CFF2C071084001906A
:103DB000009820F003000090049820B1FFE70498D9
:103DC00001280BD1FFE7039901980843019004985B
:103DD000029901430098084300900AE0049803996F
:103DE000014301980843019002990098084300900C
:103DF000FFE7019841F20401C4F202010860009853
:103E000041F24001C4F20201086005B0704700BFF2
:103E100081B08DF803009DF803006021C4F24221B7
:103E2000086001B0704700BF82B001900020009090
:103E300041F20401C4F2020108680090009820F0E9
:103E400003000090019A00981043009000980860C9
:103E500002B0704741F20400C4F20200006800F0B2
:103E60000C00704782B001900020009041F20401E4
:103E7000C4F2020108680090009820F0F000009061
:103E8000019A0098104300900098086002B07047B3
:103E900082B001900020009041F20401C4F20201BE
:103EA00008680090009820F4E0600090019A009863
:103EB000104300900098086002B0704782B00190F3
:103EC0000020009041F20401C4F202010868009051
:103ED000009820F460500090019A009840EAC200D7
:103EE00000900098086002B0704700BF81B08DF864
:103EF00003008DF802109DF8020058B1FFE79DF80D
:103F0000032041F20801C4F20201086840EA0220DD
:103F100008600AE09DF8032041F20801C4F20201A2
:103F2000086820EA02200860FFE701B0704700BF80
:103F300081B000900098D821C4F242210860009816
:103F40004008DC21C4F24221086001B0704700BF84
:103F500082B001900020009041F22C01C4F20201D5
:103F600008680090009820F000500090019A009896
:103F7000104300900098086002B0704782B0019032
:103F80000020009041F22C01C4F202010868009068
:103F9000009820F0F8500090019A0098104300908B
:103FA0000098086002B0704783B002900191002031
:103FB000009041F22C01C4F20201086800900098C0
:103FC00020F400300090009820F4F8300090029A1D
:103FD000009810430090019A0098104300900098B8
:103FE000086003B0704700BF83B002908DF80710DF
:103FF0000020009041F22C00C4F202000068009002
:10400000009820F4F87000909DF8070028B1FFE7B1
:10401000029900980843009008E00299009808432C
:104020000090009820F480700090FFE7009841F223
:104030002C01C4F20201086003B0704782B0019005
:104040000020009041F22C01C4F2020108680090A7
:10405000009820F00F000090019A00981043009003
:104060000098086002B0704783B002900191002070
:10407000009041F23001C4F20201086800900098FB
:1040800020F400300090009820F478400090029ACC
:10409000009810430090019A0098104300900098F7
:1040A000086003B0704700BF81B08DF803009DF831
:1040B000030048B1FFE741F23001C4F20201086891
:1040C00040F48020086008E041F23001C4F20201AF
:1040D000086820F480200860FFE701B0704700BF47
:1040E00083B002908DF807100020009041F230015B
:1040F000C4F2020108680090009820F4007000905B
:10410000029A009810430090009808609DF80700FC
:1041100048B1FFE741F23001C4F20201086840F003
:104120008000086008E041F23001C4F20201086832
:1041300020F080000860FFE703B0704781B0009076
:1041400041F23001C4F20201086820F48070086076
:10415000009A08681043086001B0704782B001906F
:104160008DF803109DF8030048B1FFE7019A41F272
:104170003401C4F2020108681043086008E0019AA3
:1041800041F23401C4F20201086890430860FFE77D
:1041900002B0704782B001908DF803109DF80300C3
:1041A00050B1FFE7019A41F23401C4F202010868FC
:1041B00040EA0210086009E0019A41F23401C4F2B9
:1041C0000201086820EA02100860FFE702B07047A9
:1041D00080B582B001904FF08050012100F016F8B8
:1041E00047F20001C4F20001086840F480700860E2
:1041F00041F23401C4F20201086820F007000860AF
:10420000019A08681043086002B080BD82B0019036
:104210008DF803109DF8030048B1FFE7019A41F2C1
:104220001C01C4F2020108681043086008E0019A0A
:1042300041F21C01C4F20201086890430860FFE7E4
:1042400002B0704741F23400C4F20200006800F08E
:104250000700704781B0009041F23401C4F20201BE
:10426000086820F018000860009A08681043086089
:1042700001B0704741F23400C4F20200006800F05F
:104280001800704782B001908DF803109DF803006C
:1042900048B1FFE7019A41F24401C4F20201086803
:1042A0001043086008E0019A41F24401C4F202019F
:1042B000086890430860FFE702B0704782B0019041
:1042C0008DF803109DF8030048B1FFE7019A41F211
:1042D0004401C4F2020108681043086008E0019A32
:1042E00041F24401C4F20201086890430860FFE70C
:1042F00002B0704781B00090009A41F24401C4F2CC
:10430000020108681043086001B0704780B582B0B0
:104310008DF807004FF080500121FFF777FF47F23B
:104320000001C4F20001086840F48070086041F2A6
:104330002001C4F20201086820F00D0008609DF819
:10434000070001460091012804D0FFE700980428E7
:1043500009D011E041F22001C4F20201086840F0E6
:104360000100086009E041F22001C4F2020108687E
:1043700040F00500086000E0FFE702B080BD00BF2C
:1043800081B08DF803009DF8030040F28041C4F233
:104390004221086001B0704781B0009041F22001D5
:1043A000C4F20201086820F440700860009A0868AE
:1043B0001043086001B0704741F22000C4F20200CF
:1043C000006800F44070704781B08DF803009DF8DC
:1043D000030040F23C41C4F24221086001B0704742
:1043E00081B0009041F22001C4F20201086820F07F
:1043F00020000860009A08681043086001B0704708
:1044000041F22000C4F20200006800F02000704772
:1044100088B00790002006900590049003900290C9
:104420008DF8070041F20400C4F202000168002286
:10443000C0F63C0211400491006800F48030039003
:1044400041F22400C4F202000068C0F302108DF8AB
:1044500007009DF813000007002806D4FFE7049921
:10446000022000EB9140049006E004996FF4F7708D
:1044700000EB91400490FFE70398C8B9FFE741F2D1
:104480004000C4F202000068C00740B1FFE7049892
:1044900041F20021C0F27A014843059007E00498F8
:1044A00042F20041C0F2F40148430590FFE719E0F1
:1044B00041F20400C4F2020000688003002808D51D
:1044C000FFE7049840F60011C0F23D014843059013
:1044D00007E0049841F20021C0F27A0148430590B8
:1044E000FFE7FFE741F24000C4F2020000688007E6
:1044F000002804D5FFE7059840080590FFE741F242
:104500000400C4F20200006800F00C000690069857
:1045100000900C2826D80099DFE801F00724242415
:10452000122424241924242420009DF8071043F683
:10453000BC30C0F6010050F82100079908601CE06B
:10454000079942F20040C0F2F400086015E00799B4
:1045500041F20020C0F27A0008600EE00598079949
:1045600008600AE09DF8071043F6BC30C0F6010071
:1045700050F8210007990860FFE741F20401C4F2F6
:104580000201086800F0F000069006980009069005
:10459000069A43F6AC30C0F60100825C0292079B9B
:1045A0001A68DDF808C022FA0CF25A600A6802F4B0
:1045B000E0620692069A120A0692069A825C0292BB
:1045C000079B5A68DDF808C022FA0CF29A60096865
:1045D00001F4605106910699C90A06910699405C5A
:1045E000029007994868029AD040C86041F22C00B6
:1045F000C4F20200016801F00F010691069A43F629
:104600007C31C0F60101895C0291079A5168029BD6
:10461000B1FBF3F15161006800F4F8700690069860
:1046200000090690069800F00F0143F68C30C0F6A2
:10463000010030F81100029005980299B0FBF1F0EA
:104640000799086108B0704782B001908DF8031097
:104650009DF8030048B1FFE7019A41F21401C4F24A
:10466000020108681043086008E0019A41F2140151
:10467000C4F20201086890430860FFE702B0704787
:1046800082B001908DF803109DF8030048B1FFE758
:10469000019A41F21801C4F202010868104308604F
:1046A00008E0019A41F21801C4F20201086890433F
:1046B0000860FFE702B0704782B001908DF80310E8
:1046C0009DF8030048B1FFE7019A41F22801C4F2C6
:1046D000020108681043086008E0019A41F22801CD
:1046E000C4F20201086890430860FFE702B0704717
:1046F00082B001908DF803109DF8030048B1FFE7E8
:10470000019A41F20C01C4F20201086810430860EA
:1047100008E0019A41F20C01C4F2020108689043DA
:104720000860FFE702B0704782B001908DF8031077
:104730009DF8030048B1FFE7019A41F21001C4F26D
:10474000020108681043086008E0019A41F2100174
:10475000C4F20201086890430860FFE702B07047A6
:1047600081B08DF803009DF8030040F24041C4F28F
:104770004221086001B0704781B08DF803009DF8B8
:1047800003004C21C4F24221086001B0704700BF11
:1047900081B08DF803009DF8030040F20C41C4F293
:1047A0004221086001B0704781B000208DF80300FD
:1047B00041F22000C4F202000068C006002804D5BF
:1047C000FFE701208DF8030003E000208DF80300CF
:1047D000FFE79DF8030001B0704700BF82B0019071
:1047E0000020009041F20401C4F202010868009028
:1047F000009820F070400090019A009810430090BB
:104800000098086002B0704782B08DF80700002061
:10481000009041F20401C4F202010868009000987F
:1048200020F0E06000909DF80720009840EA0260C8
:1048300000900098086002B0704700BF41F2240168
:10484000C4F20201086840F080700860086820F037
:1048500080700860704700BF81B08DF803000020B1
:104860008DF8020041F20800C4F2020000689DF8D1
:104870000310084204D0FFE701208DF8020003E096
:1048800000208DF80200FFE79DF8020001B070479C
:1048900081B00090009A41F20801C4F20201086858
:1048A0001043086001B0704780B58AB0099009983C
:1048B00042F60041C4F2010188420BD1FFE74FF4F8
:1048C000006008900121FFF713FF08980021FFF70F
:1048D0000FFF96E00998B0F1804F0AD1FFE7012160
:1048E00007910846FFF720FF07980021FFF71CFFFC
:1048F00086E0099840F20041C4F2000188420AD1E2
:10490000FFE7022006900121FFF70EFF0698002125
:10491000FFF70AFF73E0099840F60001C4F20001B6
:1049200088420AD1FFE7042005900121FFF7FCFE31
:1049300005980021FFF7F8FE60E0099840F6004175
:10494000C4F2000188420AD1FFE708200490012147
:10495000FFF7EAFE04980021FFF7E6FE4DE0099814
:1049600041F20001C4F2000188420AD1FFE71020A1
:1049700003900121FFF7D8FE03980021FFF7D4FE32
:104980003AE0099841F20041C4F2000188420AD19C
:10499000FFE7202002900121FFF7C6FE02980021C8
:1049A000FFF7C2FE27E0099843F20041C4F201017B
:1049B00088420BD1FFE74FF4005001900121FFF72F
:1049C00097FE01980021FFF793FE13E0099843F644
:1049D0000041C4F2000188420BD1FFE74FF40070A0
:1049E00000900121FFF7A0FE00980021FFF79CFE38
:1049F000FFE7FFE7FFE7FFE7FFE7FFE7FFE7FFE787
:104A0000FFE70AB080BD00BF83B002900191002093
:104A10000090029800680090029842F60041C4F2AB
:104A2000010188422DD0FFE7029843F20041C4F211
:104A30000101884225D0FFE70298B0F1804F20D0D5
:104A4000FFE7029840F20041C4F20001884218D00A
:104A5000FFE7029840F60001C4F20001884210D03E
:104A6000FFE7029840F60041C4F20001884208D0F6
:104A7000FFE7029843F60041C4F2000188420AD1E0
:104A8000FFE7009820F0700000900198418800989E
:104A900008430090FFE7029841F20001C4F20001D0
:104AA000884212D0FFE7029841F20041C4F20001AF
:104AB00088420AD0FFE7009820F4407000900198E7
:104AC000C188009808430090FFE7009802990860A9
:104AD0000198808802998885019800880299088544
:104AE000029842F60041C4F20101884208D0FFE773
:104AF000029843F20041C4F20101884205D1FFE768
:104B00000198007A02990886FFE7029901208882BD
:104B1000029800680090029842F60041C4F2010138
:104B200088422DD0FFE7029843F20041C4F2010110
:104B3000884225D0FFE70298B0F1804F20D0FFE7F0
:104B4000029840F20041C4F20001884218D0FFE709
:104B5000029840F60001C4F20001884210D0FFE73D
:104B6000029840F60041C4F20001884208D0FFE7F5
:104B7000029843F60041C4F20001884210D1FFE7D9
:104B80000198407AC00728B1FFE7009840F4006020
:104B9000009004E0009820F400600090FFE7FFE739
:104BA000029843F60041C4F2000188422ED1FFE78B
:104BB0000198807AC00728B1FFE7009840F4805040
:104BC000009004E0009820F480500090FFE70198E6
:104BD000C07AC00728B1FFE7009840F40050009069
:104BE00004E0009820F400500090FFE70198007B5B
:104BF000C00728B1FFE7009840F48040009004E02F
:104C0000009820F480400090FFE7FFE7029842F60A
:104C10000041C4F20101884225D0FFE7029843F227
:104C20000041C4F2010188421DD0FFE70298B0F1B3
:104C3000804F18D0FFE7029840F20041C4F2000113
:104C4000884210D0FFE7029840F60001C4F200014C
:104C5000884208D0FFE7029843F60041C4F2000101
:104C6000884210D1FFE70198407BC00728B1FFE7D9
:104C7000009840F40040009004E0009820F40040C8
:104C80000090FFE7FFE700980299086002984068EB
:104C900000900298B0F1804F08D0FFE7029840F6EC
:104CA0000001C4F20001884210D1FFE70198807B27
:104CB000C00728B1FFE7009840F48070009004E03E
:104CC000009820F480700090FFE7FFE700980299B9
:104CD000486003B0704700BF85B004900391002086
:104CE000ADF80A00019000900499086A20F00100D4
:104CF00008620498006A0190049840680090049843
:104D0000008BADF80A00BDF80A0020F07000ADF885
:104D10000A00BDF80A0020F00300ADF80A0003986D
:104D20000188BDF80A000843ADF80A00019820F098
:104D300002000190039801890198084301900398AB
:104D40004188019808430190049842F60041C4F25A
:104D50000101884208D0FFE7049843F20041C4F201
:104D60000101884225D1FFE7019820F00800019059
:104D700003984189019808430190019820F00400AC
:104D8000019003988188019808430190009820F4CD
:104D900080700090009820F4007000900398818942
:104DA0000098084300900398C18900980843009038
:104DB000FFE7009804994860BDF80A000499088349
:104DC0000398C0880499888601980499086205B000
:104DD000704700BF85B0049003910020ADF80A0031
:104DE000019000900499086A20F01000086204986D
:104DF000006A01900498406800900498008BADF818
:104E00000A00BDF80A0020F4E040ADF80A00BDF841
:104E10000A0020F44070ADF80A0003980188BDF83C
:104E20000A0040EA0120ADF80A00019820F02000B5
:104E3000019003980189019840EA011001900398BC
:104E40004188019840EA01100190049842F600411F
:104E5000C4F20101884208D0FFE7049843F2004100
:104E6000C4F20101884229D1FFE7019820F08000B7
:104E7000019003984189019840EA0110019001983E
:104E800020F04000019003988188019840EA0110C9
:104E90000190009820F480600090009820F4006059
:104EA000009003988189009840EA8100009003985F
:104EB000C189009840EA81000090FFE700980499BA
:104EC0004860BDF80A00049908830398C0880499D3
:104ED000088701980499086205B0704785B004906E
:104EE00003910020ADF80A00019000900499086A2F
:104EF00020F4807008620498006A01900498406869
:104F000000900498808BADF80A00BDF80A0020F0EC
:104F10007000ADF80A00BDF80A0020F00300ADF8FB
:104F20000A0003980188BDF80A000843ADF80A009A
:104F3000019820F40070019003980189019840EADB
:104F40000120019003984188019840EA01200190D6
:104F5000049842F60041C4F20101884208D0FFE7FC
:104F6000049843F20041C4F20101884229D1FFE7CD
:104F7000019820F40060019003984189019840EA6B
:104F800001200190019820F48060019003988188AD
:104F9000019840EA01200190009820F48050009090
:104FA000009820F40050009003988189009840EA0E
:104FB000011000900398C189009840EA0110009008
:104FC000FFE7009804994860BDF80A0004998883B7
:104FD0000398C0880499888701980499086205B0ED
:104FE000704700BF85B0049003910020ADF80A001F
:104FF000019000900499086A20F480500862049897
:10500000006A01900498406800900498808BADF885
:105010000A00BDF80A0020F4E040ADF80A00BDF82F
:105020000A0020F44070ADF80A0003980188BDF82A
:105030000A0040EA0120ADF80A00019820F400506F
:10504000019003980189019840EA0130019003988A
:105050004188019840EA01300190049842F60041ED
:10506000C4F20101884208D0FFE7049843F20041EE
:10507000C4F2010188420BD1FFE7009820F4804080
:10508000009003988189009840EA81100090FFE722
:10509000009804994860BDF80A0004998883039831
:1050A000C0880499A1F8400001980499086205B0ED
:1050B000704700BF85B0049003910020ADF80A004E
:1050C000019000900499086A20F4803008620498E6
:1050D000006A01900498406800900498B0F8540069
:1050E000ADF80A00BDF80A0020F07000ADF80A0023
:1050F00003980188BDF80A000843ADF80A0001983A
:1051000020F40030019003980189019840EA0140A1
:10511000019003984188019840EA01400190049869
:1051200042F60041C4F20101884208D0FFE704982A
:1051300043F20041C4F2010188420BD1FFE700981D
:1051400020F48030009003988189009840EA012083
:105150000090FFE7009804994860BDF80A000499A0
:10516000A1F854000398C0880499A1F85800019848
:105170000499086205B0704785B00490039100203F
:10518000ADF80A00019000900499086A20F480109C
:1051900008620498006A019004984068009004989E
:1051A000B0F85400ADF80A00BDF80A0020F4E04061
:1051B000ADF80A0003980188BDF80A0040EA012012
:1051C000ADF80A00019820F40010019003980189BD
:1051D000019840EA0150019003984188019840EA03
:1051E00001500190049842F60041C4F20101884246
:1051F00008D0FFE7049843F20041C4F2010188425D
:105200000BD1FFE7009820F480200090039881895B
:10521000009840EA81200090FFE7009804994860D8
:10522000BDF80A000499A1F854000398C0880499B5
:10523000A1F85C0001980499086205B0704700BFAE
:1052400080B582B001900091019842F60041C4F20D
:10525000010188422DD0FFE7019843F20041C4F2DA
:105260000101884225D0FFE70198B0F1804F20D09E
:10527000FFE7019840F20041C4F20001884218D0D3
:10528000FFE7019840F60001C4F20001884210D007
:10529000FFE7019840F60041C4F20001884208D0BF
:1052A000FFE7019843F60041C4F20001884201D1B2
:1052B000FFE700E0FFE70098008868B9FFE7019882
:1052C000009B59889A881B8900F03CF80198009946
:1052D000C98800F0B7F832E00098008804280DD1A2
:1052E000FFE70198009B59889A881B8900F0BCF859
:1052F00001980099C98800F041F91FE000980088E2
:1053000008280DD1FFE70198009B59889A881B89CE
:1053100000F046F901980099C98800F0C5F90CE041
:105320000198009B59889A881B8900F0CFF9019851
:105330000099C98800F054FAFFE7FFE7FFE702B0E1
:1053400080BD00BF84B00390ADF80A10ADF808200E
:10535000ADF806300020ADF8040000900399086A0B
:1053600020F0010008620398008BADF80400039858
:10537000006A0090BDF8040020F0F300ADF80400CE
:10538000BDF80800BDF8061040EA0111BDF80400A0
:105390000843ADF80400039842F60041C4F201014D
:1053A00088422DD0FFE7039843F20041C4F2010187
:1053B000884225D0FFE70398B0F1804F20D0FFE767
:1053C000039840F20041C4F20001884218D0FFE780
:1053D000039840F60001C4F20001884210D0FFE7B4
:1053E000039840F60041C4F20001884208D0FFE76C
:1053F000039843F60041C4F2000188420CD1FFE754
:10540000009820F002000090BDF80A0000990843BF
:1054100040F0010000900BE0009820F00A0000909E
:10542000BDF80A000099084340F001000090FFE732
:10543000BDF804000399088300980399086204B03A
:10544000704700BF82B00190ADF802100199088B3F
:1054500020F00C000883BDF802200199088B10434E
:10546000088302B0704700BF85B00490ADF80E10FD
:10547000ADF80C20ADF80A300020ADF8080001901E
:1054800000900499086A20F0100008620498008BCC
:10549000ADF808000498006A0190BDF80E00000104
:1054A0000090BDF8080040F6FF410840ADF8080044
:1054B000BDF80A10BDF8080040EA0130ADF8080058
:1054C000BDF80C10BDF8080040EA0120ADF8080056
:1054D000049842F60041C4F2010188422DD0FFE752
:1054E000049843F20041C4F20101884225D0FFE74D
:1054F0000498B0F1804F20D0FFE7049840F20041BB
:10550000C4F20001884218D0FFE7049840F6000179
:10551000C4F20001884210D0FFE7049840F6004131
:10552000C4F20001884208D0FFE7049843F6004126
:10553000C4F2000188420BD1FFE7019820F020005F
:10554000019000980199084340F0100001900BE091
:10555000019820F0A0000190BDF80E0001990843C9
:1055600040F010000190FFE7BDF80800049908839F
:1055700001980499086205B0704700BF82B001909D
:10558000ADF802100199088B20F440600883BDF843
:1055900002200199088B40EA0220088302B070477C
:1055A00085B00490ADF80E10ADF80C20ADF80A30BF
:1055B0000020ADF80800019000900499086A20F4DA
:1055C000807008620498808BADF808000498006A27
:1055D0000190BDF80E0000020090BDF8080020F018
:1055E000F300ADF80800BDF80C00BDF80A1040EA61
:1055F0000111BDF808000843ADF80800049842F610
:105600000041C4F2010188422DD0FFE7049843F223
:105610000041C4F20101884225D0FFE70498B0F1AF
:10562000804F20D0FFE7049840F20041C4F200010F
:10563000884218D0FFE7049840F60001C4F2000148
:10564000884210D0FFE7049840F60041C4F2000100
:10565000884208D0FFE7049843F60041C4F20001F5
:1056600088420BD1FFE7019820F400700190009868
:105670000199084340F4807001900BE0019820F4F8
:1056800020600190BDF80E000199084340F480703D
:105690000190FFE7BDF808000499888301980499F8
:1056A000086205B0704700BF82B00190ADF80210EB
:1056B0000199888B20F00C008883BDF802200199A5
:1056C000888B1043888302B0704700BF85B0049078
:1056D000ADF80E10ADF80C20ADF80A300020ADF892
:1056E0000800019000900499086A20F48050086234
:1056F0000498808BADF808000498006A0190BDF80A
:105700000E0000030090BDF8080040F6FF4108407D
:10571000ADF80800BDF80C10BDF8080040EA012003
:10572000ADF80800BDF80A10BDF8080040EA0130E5
:10573000ADF80800049842F60041C4F20101884225
:105740002DD0FFE7049843F20041C4F201018842E2
:1057500025D0FFE70498B0F1804F20D0FFE70498F0
:1057600040F20041C4F20001884218D0FFE70498DB
:1057700040F60001C4F20001884210D0FFE704980F
:1057800040F60041C4F20001884208D0FFE70498C7
:1057900043F60041C4F2000188420BD1FFE70198B3
:1057A00020F40050019000980199084340F4805083
:1057B00001900BE0019820F400500190BDF80E001C
:1057C0000199084340F480500190FFE7BDF80800BC
:1057D0000499888301980499086205B0704700BF56
:1057E00082B00190ADF802100199888B20F44060DE
:1057F0008883BDF802200199888B40EA02208883C3
:1058000002B0704780B584B0039002910020ADF8DB
:1058100006000120ADF804000298408820B9FFE797
:105820000220ADF8060003E00020ADF80600FFE717
:1058300002988088012804D1FFE70220ADF8040017
:1058400003E00120ADF80400FFE702980088D8B912
:10585000FFE70398029B59889A881B89FFF772FD1E
:1058600003980299C988FFF7EDFD0398BDF806106B
:10587000BDF80420029B1B89FFF7F6FD03980299EF
:10588000C988FFF77BFE1AE00398029B59889A8823
:105890001B89FFF7E9FD03980299C988FFF76EFE9F
:1058A0000398BDF80610BDF80420029B1B89FFF782
:1058B00049FD03980299C988FFF7C4FDFFE704B0CA
:1058C00080BD00BF83B002900191019908884A8889
:1058D00010438A881043CA8810430A8910434A89B2
:1058E0001043898908430299A1F84400029800688E
:1058F00000900198807BC00728B1FFE7009820F452
:105900008060009004E0009840F480600090FFE721
:105910000198C07BC00728B1FFE7009840F48030B1
:10592000009004E0009820F480300090FFE7019898
:10593000007CC00728B1FFE7009840F400300090D9
:1059400004E0009820F400300090FFE700980299EE
:10595000086003B0704700BF81B0009000994FF617
:10596000FF7088800099002008800099C880009905
:1059700048800099087200994872009988720099CD
:10598000C87200990873009948730099887301B030
:10599000704700BF81B000900099002008800099F6
:1059A0004880009988800099C880009908810099F2
:1059B0004881009988810099C88101B0704700BF73
:1059C00081B0009000990020088000994880009ADA
:1059D000012191800099C8800099088101B0704729
:1059E00081B00090009900200880009948800099BB
:1059F00088800099C88000990881009948810099A1
:105A0000888101B0704700BF82B001908DF803100B
:105A10009DF8030030B1FFE70199086840F00100EC
:105A2000086005E00199086820F001000860FFE7C0
:105A300002B0704782B001908DF803109DF803000A
:105A400040B1FFE70199B1F8440040F40040A1F8EB
:105A5000440007E00199B1F844006FF3DF30A1F88A
:105A60004400FFE702B0704782B00190ADF8021029
:105A70008DF801209DF8010038B1FFE7BDF8022044
:105A8000019988891043888106E0BDF802200199B8
:105A9000888990438881FFE702B0704782B0019007
:105AA000ADF80210BDF802000199888202B070477B
:105AB00082B00190ADF80210ADF80020BDF80200F0
:105AC000BDF8001008430199A1F8480002B07047E2
:105AD00082B00190ADF802108DF801209DF8010010
